:0400000007EF00F016
:0A000800338249ED05F0F9EF04F032
:1006000000456E74657220746865204E5F49442011
:100610005B4D61782034206469676974735D3A20AA
:1006200000456E7465722074686520555F535420D0
:100630005B4D61782034206469676974735D3A208A
:100640000052656365697665642064617461204E5B
:100650005F49443A200020555F53543A20000A0D68
:1006600000002650D8B437EF03F039EF03F06AEFFB
:1006700003F00D0E2618D8B440EF03F042EF03F05C
:100680006AEF03F026C003F0D00E03260A0E0360C3
:100690004CEF03F04EEF03F067EF03F024BE5CEF86
:1006A00003F0245007E1040E235CD8B05AEF03F0A6
:1006B0005CEF03F067EF03F02350270FD96EDA6A7F
:1006C00026C0DFFF234A242A26505EEC05F0266A66
:1006D00032EF04F00D0E2618D8A471EF03F073EF7B
:1006E00003F032EF04F02550D8A479EF03F07BEF4C
:1006F00003F0D0EF03F0000E0B6E000E0A6E89EFD0
:1007000003F00A502F0FD96EDA6A300EDF6E0A4AF4
:100710000B2A040E036E000E046E2350035E245059
:10072000045A03500A5C0B50800A056E0450800A7C
:100730000558D8A09EEF03F0A0EF03F081EF03F07F
:10074000000E076E000E066E0BBEB0EF03F00B50EE
:1007500009E1040E0A5CD8A0B0EF03F0B2EF03F099
:10076000B4EF03F0C4EF03F00650270FD96EDA6A36
:100770000A502F0FE16EE26ADFCFE7FF0A4A0B2A29
:10078000064A072AA4EF03F0010E256E5E0E026EE4
:1007900033EC05F0210E026E33EC05F02CEF04F083
:1007A0002504D8A4D6EF03F0D8EF03F02CEF04F023
:1007B000000E0D6E000E0C6EE6EF03F00C502B0FCA
:1007C000D96EDA6A300EDF6E0C4A0D2A040E036E03
:1007D000000E046E2350035E2450045A03500C5C38
:1007E0000D50800A056E0450800A0558D8A0FBEF12
:1007F00003F0FDEF03F0DEEF03F0000E096E000ED4
:10080000086E0DBE0DEF04F00D5009E1040E0C5CF6
:10081000D8A00DEF04F00FEF04F011EF04F021EF7A
:1008200004F00850270FD96EDA6A0C502B0FE16ED6
:10083000E26ADFCFE7FF0C4A0D2A084A092A01EFD6
:1008400004F0256A18EC05F05E0E026E33EC05F03C
:10085000010E026E33EC05F0000E246E000E236EC6
:1008600067EF03F01200410E026E33EC05F0000E4C
:10087000066E000E056E03500524D96EDA6ADF504D
:100880005EEC05F0054A062A06BE50EF04F006505D
:1008900009E1040E055CD8A050EF04F052EF04F01B
:1008A0003BEF04F0560E026E33EC05F0000E086EBE
:1008B000000E076E04500724D96EDA6ADF505EEC32
:1008C00005F0074A082A08BE6FEF04F0085009E156
:1008D000040E075CD8A06FEF04F071EF04F05AEF3C
:1008E00004F05E0E026E33EC05F0120072EC05F0BF
:1008F000010E026E33EC05F0ADEC04F00009D8B443
:1009000084EF04F086EF04F0A7EF04F01BC00EF0B4
:100910001CC00FF01DC010F01EC011F01FC012F05F
:1009200020C013F021C014F022C015F00E0E036E8B
:10093000120E046E33EC04F0256A000E246E000ED5
:10094000236E010E026E33EC05F07CEF04F031EC07
:1009500003F07CEF04F007EF00F060AEB2EF04F0BC
:10096000B4EF04F0D3EF04F063CF16F064CF17F0C8
:1009700061CF18F062CF19F065CF1AF066CF1BF087
:1009800067CF1CF068CF1DF069CF1EF06ACF1FF053
:100990006BCF20F06CCF21F06DCF22F0609EA49041
:1009A000010ED4EF04F0000E1200939493861F0EF4
:1009B0006F166F8E800E6E18D8A4E1EF04F0E3EF8F
:1009C00004F0DAEF04F0776AE10E706E1B0E716EC0
:1009D000030E726E010E0D01D46F0F01026B036BDB
:1009E0006B0E006FC00E016F1F0E6F166F50606AA6
:1009F0001200F20EF66E0A0EF76E000EF86E00EEA2
:100A000027F010EE0CF00900F5CFEEFFE550E150B5
:100A1000FAE100EE16F0110EEE6AE806FDE1339001
:100A20003392000EF86E060EF76E000176EF04F0BA
:100A30000F01436B446B6B0E416FC00E426F080E8B
:100A4000456F2FC046FF30C047FF31C048FF32C05E
:100A500049FF2BC04AFF2CC04BFF2DC04CFF2EC0BE
:100A60004DFF408712003CEF05F002C0F6FF080082
:100A7000F5505EEC05F0022A02C0F6FF0800F550C2
:100A80000009D8A446EF05F048EF05F035EF05F072
:100A9000120006009EAA4FEF05F051EF05F05CEF43
:100AA00005F0ABA256EF05F058EF05F059EF05F051
:100AB000AB92AECF26F09E9A33921100016E9EA8A3
:100AC00064EF05F066EF05F05FEF05F001C0ADFFE4
:100AD0001200948E949CAC84AB8EAB88810EAF6E6A
:100AE0009D8A1200D5EC04F069EC05F0F28CF28ED0
:0E0AF0001200303030303030303030303030A6
:020000040020DA
:08000000FFFFFFFFFFFFFFFF00
:020000040030CA
:0E000000FF071F1FFF8285FF0FC00FE00F409C
:00000001FF
